{
  "_format": "hh-sol-artifact-1",
  "contractName": "TORC",
  "sourceName": "contracts/TORC.sol",
  "abi": [
    {
      "inputs": [],
      "stateMutability": "nonpayable",
      "type": "constructor"
    },
    {
      "inputs": [
        {
          "internalType": "uint256",
          "name": "increasedSupply",
          "type": "uint256"
        },
        {
          "internalType": "uint256",
          "name": "cap",
          "type": "uint256"
        }
      ],
      "name": "ERC20ExceededCap",
      "type": "error"
    },
    {
      "inputs": [
        {
          "internalType": "address",
          "name": "spender",
          "type": "address"
        },
        {
          "internalType": "uint256",
          "name": "allowance",
          "type": "uint256"
        },
        {
          "internalType": "uint256",
          "name": "needed",
          "type": "uint256"
        }
      ],
      "name": "ERC20InsufficientAllowance",
      "type": "error"
    },
    {
      "inputs": [
        {
          "internalType": "address",
          "name": "sender",
          "type": "address"
        },
        {
          "internalType": "uint256",
          "name": "balance",
          "type": "uint256"
        },
        {
          "internalType": "uint256",
          "name": "needed",
          "type": "uint256"
        }
      ],
      "name": "ERC20InsufficientBalance",
      "type": "error"
    },
    {
      "inputs": [
        {
          "internalType": "address",
          "name": "approver",
          "type": "address"
        }
      ],
      "name": "ERC20InvalidApprover",
      "type": "error"
    },
    {
      "inputs": [
        {
          "internalType": "uint256",
          "name": "cap",
          "type": "uint256"
        }
      ],
      "name": "ERC20InvalidCap",
      "type": "error"
    },
    {
      "inputs": [
        {
          "internalType": "address",
          "name": "receiver",
          "type": "address"
        }
      ],
      "name": "ERC20InvalidReceiver",
      "type": "error"
    },
    {
      "inputs": [
        {
          "internalType": "address",
          "name": "sender",
          "type": "address"
        }
      ],
      "name": "ERC20InvalidSender",
      "type": "error"
    },
    {
      "inputs": [
        {
          "internalType": "address",
          "name": "spender",
          "type": "address"
        }
      ],
      "name": "ERC20InvalidSpender",
      "type": "error"
    },
    {
      "inputs": [],
      "name": "EnforcedPause",
      "type": "error"
    },
    {
      "inputs": [],
      "name": "ExpectedPause",
      "type": "error"
    },
    {
      "inputs": [
        {
          "internalType": "address",
          "name": "owner",
          "type": "address"
        }
      ],
      "name": "OwnableInvalidOwner",
      "type": "error"
    },
    {
      "inputs": [
        {
          "internalType": "address",
          "name": "account",
          "type": "address"
        }
      ],
      "name": "OwnableUnauthorizedAccount",
      "type": "error"
    },
    {
      "anonymous": false,
      "inputs": [
        {
          "indexed": true,
          "internalType": "address",
          "name": "owner",
          "type": "address"
        },
        {
          "indexed": true,
          "internalType": "address",
          "name": "spender",
          "type": "address"
        },
        {
          "indexed": false,
          "internalType": "uint256",
          "name": "value",
          "type": "uint256"
        }
      ],
      "name": "Approval",
      "type": "event"
    },
    {
      "anonymous": false,
      "inputs": [
        {
          "indexed": true,
          "internalType": "address",
          "name": "previousOwner",
          "type": "address"
        },
        {
          "indexed": true,
          "internalType": "address",
          "name": "newOwner",
          "type": "address"
        }
      ],
      "name": "OwnershipTransferred",
      "type": "event"
    },
    {
      "anonymous": false,
      "inputs": [
        {
          "indexed": false,
          "internalType": "address",
          "name": "account",
          "type": "address"
        }
      ],
      "name": "Paused",
      "type": "event"
    },
    {
      "anonymous": false,
      "inputs": [
        {
          "indexed": false,
          "internalType": "uint8",
          "name": "newBuyTax",
          "type": "uint8"
        },
        {
          "indexed": false,
          "internalType": "uint8",
          "name": "newSellTax",
          "type": "uint8"
        }
      ],
      "name": "TaxRateChanged",
      "type": "event"
    },
    {
      "anonymous": false,
      "inputs": [
        {
          "indexed": false,
          "internalType": "address",
          "name": "newTaxWallet",
          "type": "address"
        }
      ],
      "name": "TaxWalletChanged",
      "type": "event"
    },
    {
      "anonymous": false,
      "inputs": [
        {
          "indexed": false,
          "internalType": "uint256",
          "name": "totalWallets",
          "type": "uint256"
        },
        {
          "indexed": false,
          "internalType": "uint256",
          "name": "totalTokens",
          "type": "uint256"
        }
      ],
      "name": "TokensAirdropped",
      "type": "event"
    },
    {
      "anonymous": false,
      "inputs": [
        {
          "indexed": true,
          "internalType": "address",
          "name": "burnedByWallet",
          "type": "address"
        },
        {
          "indexed": false,
          "internalType": "uint256",
          "name": "tokenAmount",
          "type": "uint256"
        }
      ],
      "name": "TokensBurned",
      "type": "event"
    },
    {
      "anonymous": false,
      "inputs": [
        {
          "indexed": true,
          "internalType": "address",
          "name": "from",
          "type": "address"
        },
        {
          "indexed": true,
          "internalType": "address",
          "name": "to",
          "type": "address"
        },
        {
          "indexed": false,
          "internalType": "uint256",
          "name": "value",
          "type": "uint256"
        }
      ],
      "name": "Transfer",
      "type": "event"
    },
    {
      "anonymous": false,
      "inputs": [
        {
          "indexed": false,
          "internalType": "address",
          "name": "account",
          "type": "address"
        }
      ],
      "name": "Unpaused",
      "type": "event"
    },
    {
      "inputs": [
        {
          "internalType": "uint8",
          "name": "newBuyTax",
          "type": "uint8"
        },
        {
          "internalType": "uint8",
          "name": "newSellTax",
          "type": "uint8"
        }
      ],
      "name": "adjustTaxRate",
      "outputs": [],
      "stateMutability": "nonpayable",
      "type": "function"
    },
    {
      "inputs": [
        {
          "internalType": "address",
          "name": "owner",
          "type": "address"
        },
        {
          "internalType": "address",
          "name": "spender",
          "type": "address"
        }
      ],
      "name": "allowance",
      "outputs": [
        {
          "internalType": "uint256",
          "name": "",
          "type": "uint256"
        }
      ],
      "stateMutability": "view",
      "type": "function"
    },
    {
      "inputs": [],
      "name": "antiBotEnabled",
      "outputs": [
        {
          "internalType": "bool",
          "name": "",
          "type": "bool"
        }
      ],
      "stateMutability": "view",
      "type": "function"
    },
    {
      "inputs": [
        {
          "internalType": "address",
          "name": "spender",
          "type": "address"
        },
        {
          "internalType": "uint256",
          "name": "value",
          "type": "uint256"
        }
      ],
      "name": "approve",
      "outputs": [
        {
          "internalType": "bool",
          "name": "",
          "type": "bool"
        }
      ],
      "stateMutability": "nonpayable",
      "type": "function"
    },
    {
      "inputs": [
        {
          "internalType": "address",
          "name": "account",
          "type": "address"
        }
      ],
      "name": "balanceOf",
      "outputs": [
        {
          "internalType": "uint256",
          "name": "",
          "type": "uint256"
        }
      ],
      "stateMutability": "view",
      "type": "function"
    },
    {
      "inputs": [
        {
          "internalType": "uint256",
          "name": "value",
          "type": "uint256"
        }
      ],
      "name": "burn",
      "outputs": [],
      "stateMutability": "nonpayable",
      "type": "function"
    },
    {
      "inputs": [
        {
          "internalType": "address",
          "name": "account",
          "type": "address"
        },
        {
          "internalType": "uint256",
          "name": "value",
          "type": "uint256"
        }
      ],
      "name": "burnFrom",
      "outputs": [],
      "stateMutability": "nonpayable",
      "type": "function"
    },
    {
      "inputs": [],
      "name": "cap",
      "outputs": [
        {
          "internalType": "uint256",
          "name": "",
          "type": "uint256"
        }
      ],
      "stateMutability": "view",
      "type": "function"
    },
    {
      "inputs": [],
      "name": "decimals",
      "outputs": [
        {
          "internalType": "uint8",
          "name": "",
          "type": "uint8"
        }
      ],
      "stateMutability": "view",
      "type": "function"
    },
    {
      "inputs": [],
      "name": "devWallet",
      "outputs": [
        {
          "internalType": "address payable",
          "name": "",
          "type": "address"
        }
      ],
      "stateMutability": "view",
      "type": "function"
    },
    {
      "inputs": [
        {
          "internalType": "bool",
          "name": "isEnabled",
          "type": "bool"
        }
      ],
      "name": "enableAntiBot",
      "outputs": [],
      "stateMutability": "nonpayable",
      "type": "function"
    },
    {
      "inputs": [],
      "name": "enableTrading",
      "outputs": [],
      "stateMutability": "nonpayable",
      "type": "function"
    },
    {
      "inputs": [
        {
          "internalType": "address",
          "name": "wallet",
          "type": "address"
        },
        {
          "internalType": "bool",
          "name": "isExcluded",
          "type": "bool"
        }
      ],
      "name": "excludeFromAntiBot",
      "outputs": [],
      "stateMutability": "nonpayable",
      "type": "function"
    },
    {
      "inputs": [
        {
          "internalType": "address",
          "name": "wallet",
          "type": "address"
        },
        {
          "internalType": "bool",
          "name": "isExcluded",
          "type": "bool"
        }
      ],
      "name": "excludeFromFees",
      "outputs": [],
      "stateMutability": "nonpayable",
      "type": "function"
    },
    {
      "inputs": [
        {
          "internalType": "address",
          "name": "",
          "type": "address"
        }
      ],
      "name": "excludedFromAntiBot",
      "outputs": [
        {
          "internalType": "bool",
          "name": "",
          "type": "bool"
        }
      ],
      "stateMutability": "view",
      "type": "function"
    },
    {
      "inputs": [
        {
          "internalType": "address",
          "name": "",
          "type": "address"
        }
      ],
      "name": "excludedFromFees",
      "outputs": [
        {
          "internalType": "bool",
          "name": "",
          "type": "bool"
        }
      ],
      "stateMutability": "view",
      "type": "function"
    },
    {
      "inputs": [],
      "name": "initLP",
      "outputs": [],
      "stateMutability": "nonpayable",
      "type": "function"
    },
    {
      "inputs": [],
      "name": "marketingWallet",
      "outputs": [
        {
          "internalType": "address payable",
          "name": "",
          "type": "address"
        }
      ],
      "stateMutability": "view",
      "type": "function"
    },
    {
      "inputs": [],
      "name": "name",
      "outputs": [
        {
          "internalType": "string",
          "name": "",
          "type": "string"
        }
      ],
      "stateMutability": "view",
      "type": "function"
    },
    {
      "inputs": [],
      "name": "owner",
      "outputs": [
        {
          "internalType": "address",
          "name": "",
          "type": "address"
        }
      ],
      "stateMutability": "view",
      "type": "function"
    },
    {
      "inputs": [],
      "name": "pause",
      "outputs": [],
      "stateMutability": "nonpayable",
      "type": "function"
    },
    {
      "inputs": [],
      "name": "paused",
      "outputs": [
        {
          "internalType": "bool",
          "name": "",
          "type": "bool"
        }
      ],
      "stateMutability": "view",
      "type": "function"
    },
    {
      "inputs": [],
      "name": "renounceOwnership",
      "outputs": [],
      "stateMutability": "nonpayable",
      "type": "function"
    },
    {
      "inputs": [
        {
          "internalType": "address",
          "name": "newTaxWallet",
          "type": "address"
        }
      ],
      "name": "setTaxWallet",
      "outputs": [],
      "stateMutability": "nonpayable",
      "type": "function"
    },
    {
      "inputs": [],
      "name": "symbol",
      "outputs": [
        {
          "internalType": "string",
          "name": "",
          "type": "string"
        }
      ],
      "stateMutability": "view",
      "type": "function"
    },
    {
      "inputs": [],
      "name": "taxEthSend",
      "outputs": [],
      "stateMutability": "nonpayable",
      "type": "function"
    },
    {
      "inputs": [],
      "name": "taxRateBuy",
      "outputs": [
        {
          "internalType": "uint8",
          "name": "",
          "type": "uint8"
        }
      ],
      "stateMutability": "view",
      "type": "function"
    },
    {
      "inputs": [],
      "name": "taxRateSell",
      "outputs": [
        {
          "internalType": "uint8",
          "name": "",
          "type": "uint8"
        }
      ],
      "stateMutability": "view",
      "type": "function"
    },
    {
      "inputs": [],
      "name": "taxSwapMax",
      "outputs": [
        {
          "internalType": "uint256",
          "name": "",
          "type": "uint256"
        }
      ],
      "stateMutability": "view",
      "type": "function"
    },
    {
      "inputs": [],
      "name": "taxSwapMin",
      "outputs": [
        {
          "internalType": "uint256",
          "name": "",
          "type": "uint256"
        }
      ],
      "stateMutability": "view",
      "type": "function"
    },
    {
      "inputs": [
        {
          "internalType": "uint32",
          "name": "minValue",
          "type": "uint32"
        },
        {
          "internalType": "uint32",
          "name": "minDivider",
          "type": "uint32"
        },
        {
          "internalType": "uint32",
          "name": "maxValue",
          "type": "uint32"
        },
        {
          "internalType": "uint32",
          "name": "maxDivider",
          "type": "uint32"
        }
      ],
      "name": "taxSwapSettings",
      "outputs": [],
      "stateMutability": "nonpayable",
      "type": "function"
    },
    {
      "inputs": [],
      "name": "taxTokensSwap",
      "outputs": [],
      "stateMutability": "nonpayable",
      "type": "function"
    },
    {
      "inputs": [],
      "name": "teamWallet",
      "outputs": [
        {
          "internalType": "address payable",
          "name": "",
          "type": "address"
        }
      ],
      "stateMutability": "view",
      "type": "function"
    },
    {
      "inputs": [],
      "name": "totalSupply",
      "outputs": [
        {
          "internalType": "uint256",
          "name": "",
          "type": "uint256"
        }
      ],
      "stateMutability": "view",
      "type": "function"
    },
    {
      "inputs": [],
      "name": "tradingOpen",
      "outputs": [
        {
          "internalType": "bool",
          "name": "",
          "type": "bool"
        }
      ],
      "stateMutability": "view",
      "type": "function"
    },
    {
      "inputs": [
        {
          "internalType": "address",
          "name": "recipient",
          "type": "address"
        },
        {
          "internalType": "uint256",
          "name": "amount",
          "type": "uint256"
        }
      ],
      "name": "transfer",
      "outputs": [
        {
          "internalType": "bool",
          "name": "",
          "type": "bool"
        }
      ],
      "stateMutability": "nonpayable",
      "type": "function"
    },
    {
      "inputs": [
        {
          "internalType": "address",
          "name": "sender",
          "type": "address"
        },
        {
          "internalType": "address",
          "name": "recipient",
          "type": "address"
        },
        {
          "internalType": "uint256",
          "name": "amount",
          "type": "uint256"
        }
      ],
      "name": "transferFrom",
      "outputs": [
        {
          "internalType": "bool",
          "name": "",
          "type": "bool"
        }
      ],
      "stateMutability": "nonpayable",
      "type": "function"
    },
    {
      "inputs": [
        {
          "internalType": "address",
          "name": "newOwner",
          "type": "address"
        }
      ],
      "name": "transferOwnership",
      "outputs": [],
      "stateMutability": "nonpayable",
      "type": "function"
    },
    {
      "inputs": [],
      "name": "treasuryWallet",
      "outputs": [
        {
          "internalType": "address payable",
          "name": "",
          "type": "address"
        }
      ],
      "stateMutability": "view",
      "type": "function"
    },
    {
      "inputs": [],
      "name": "unpause",
      "outputs": [],
      "stateMutability": "nonpayable",
      "type": "function"
    },
    {
      "stateMutability": "payable",
      "type": "receive"
    }
  ],
  "bytecode": "0x60a06040526013805460ff191690553480156200001b57600080fd5b506200002a6009600a62000433565b6200003a906319bfcc006200044b565b3360405180604001604052806004815260200163546f726360e01b81525060405180604001604052806004815260200163544f524360e01b81525081600390816200008691906200050c565b5060046200009582826200050c565b50506005805460ff19169055506001600160a01b038116620000d257604051631e4fbdf760e01b8152600060048201526024015b60405180910390fd5b620000dd81620002c4565b5080600003620001045760405163392e1e2760e01b815260006004820152602401620000c9565b608052612710620001186009600a62000433565b62000128906319bfcc006200044b565b6200013590600a6200044b565b620001419190620005d8565b600d55612710620001556009600a62000433565b62000165906319bfcc006200044b565b620001729060326200044b565b6200017e9190620005d8565b600e5560138054610100600160a81b031916747a250d5630b4cf539739df2c5dacb4c659f2488d001790557fd1def2fe8304e5e69b6f2907349cddd4c272de4ef47368d65b87ae00d7f10147805460ff1990811660019081179092553360008181526011602090815260408083208054861687179055308084528184208054871688179055938352600b909152808220805485168617905591815281812080548416851790557fdf7de25b7f1fd6d0b5205f0e18f1f35bd7b8d84cce336588d184533ce43a6f7680548416851790556006546001600160a01b0390811682528282208054851686179055600754811682528282208054851686179055600a5481168252828220805485168617905560085481168252828220805485168617905560095416815220805490911690911790556010805461ffff1916610303179055620005fb565b600580546001600160a01b03838116610100818102610100600160a81b031985161790945560405193909204169182907f8be0079c531659141344cd1fd0a4f28419497f9722a3daafe3b4186f6b6457e090600090a35050565b634e487b7160e01b600052601160045260246000fd5b600181815b80851115620003755781600019048211156200035957620003596200031e565b808516156200036757918102915b93841c939080029062000339565b509250929050565b6000826200038e575060016200042d565b816200039d575060006200042d565b8160018114620003b65760028114620003c157620003e1565b60019150506200042d565b60ff841115620003d557620003d56200031e565b50506001821b6200042d565b5060208310610133831016604e8410600b841016171562000406575081810a6200042d565b62000412838362000334565b80600019048211156200042957620004296200031e565b0290505b92915050565b60006200044460ff8416836200037d565b9392505050565b80820281158282048414176200042d576200042d6200031e565b634e487b7160e01b600052604160045260246000fd5b600181811c908216806200049057607f821691505b602082108103620004b157634e487b7160e01b600052602260045260246000fd5b50919050565b601f82111562000507576000816000526020600020601f850160051c81016020861015620004e25750805b601f850160051c820191505b818110156200050357828155600101620004ee565b5050505b505050565b81516001600160401b0381111562000528576200052862000465565b62000540816200053984546200047b565b84620004b7565b602080601f8311600181146200057857600084156200055f5750858301515b600019600386901b1c1916600185901b17855562000503565b600085815260208120601f198616915b82811015620005a95788860151825594840194600190910190840162000588565b5085821015620005c85787850151600019600388901b60f8161c191681555b5050505050600190811b01905550565b600082620005f657634e487b7160e01b600052601260045260246000fd5b500490565b6080516124e26200061e600039600081816103cc0152611e8b01526124e26000f3fe6080604052600436106102be5760003560e01c806380781cf91161016e578063cfc06e0b116100cb578063dd62ed3e1161007f578063eb81994811610064578063eb819948146107a1578063f2fde38b146107b7578063ffb54a99146107d757600080fd5b8063dd62ed3e1461073b578063ea414b281461078157600080fd5b8063db861599116100b0578063db861599146106e0578063dbe66ca0146106f6578063dca2a8b61461072657600080fd5b8063cfc06e0b146106a0578063d8c6404b146106c057600080fd5b806395d89b4111610122578063a9059cbb11610107578063a9059cbb14610641578063c024666814610661578063cc18e05a1461068157600080fd5b806395d89b411461060c578063a41911781461062157600080fd5b80638a8c523c116101535780638a8c523c146105b45780638da5cb5b146105c95780638ea5220f146105ec57600080fd5b806380781cf9146105855780638456cb591461059f57600080fd5b806342966c681161021c5780636e34e91d116101d0578063715018a6116101b5578063715018a61461053057806375f0a8741461054557806379cc67901461056557600080fd5b80636e34e91d146104e557806370a08231146104fa57600080fd5b80635992704411610201578063599270441461048d5780635c975abb146104ad5780636b7f8b90146104c557600080fd5b806342966c68146104355780634626402b1461045557600080fd5b806323b872dd11610273578063355274ea11610258578063355274ea146103bd578063388b4f17146103f05780633f4ba83a1461042057600080fd5b806323b872dd1461037b578063313ce5671461039b57600080fd5b8063095ea7b3116102a4578063095ea7b31461031757806318160ddd146103475780631c939ee91461036657600080fd5b8062fffc9d146102ca57806306fdde03146102ec57600080fd5b366102c557005b600080fd5b3480156102d657600080fd5b506102ea6102e5366004612029565b6107f1565b005b3480156102f857600080fd5b506103016109c7565b60405161030e919061207d565b60405180910390f35b34801561032357600080fd5b506103376103323660046120e1565b610a59565b604051901515815260200161030e565b34801561035357600080fd5b506002545b60405190815260200161030e565b34801561037257600080fd5b506102ea610a73565b34801561038757600080fd5b5061033761039636600461210d565b610ad5565b3480156103a757600080fd5b5060125b60405160ff909116815260200161030e565b3480156103c957600080fd5b507f0000000000000000000000000000000000000000000000000000000000000000610358565b3480156103fc57600080fd5b5061033761040b36600461214e565b60116020526000908152604090205460ff1681565b34801561042c57600080fd5b506102ea610b31565b34801561044157600080fd5b506102ea610450366004612172565b610b43565b34801561046157600080fd5b50600754610475906001600160a01b031681565b6040516001600160a01b03909116815260200161030e565b34801561049957600080fd5b50600954610475906001600160a01b031681565b3480156104b957600080fd5b5060055460ff16610337565b3480156104d157600080fd5b506102ea6104e036600461219b565b610b4d565b3480156104f157600080fd5b506102ea610b71565b34801561050657600080fd5b5061035861051536600461214e565b6001600160a01b031660009081526020819052604090205490565b34801561053c57600080fd5b506102ea610e46565b34801561055157600080fd5b50600854610475906001600160a01b031681565b34801561057157600080fd5b506102ea6105803660046120e1565b610e58565b34801561059157600080fd5b506010546103ab9060ff1681565b3480156105ab57600080fd5b506102ea610e71565b3480156105c057600080fd5b506102ea610e81565b3480156105d557600080fd5b5060055461010090046001600160a01b0316610475565b3480156105f857600080fd5b50600a54610475906001600160a01b031681565b34801561061857600080fd5b50610301610e91565b34801561062d57600080fd5b506102ea61063c3660046121c7565b610ea0565b34801561064d57600080fd5b5061033761065c3660046120e1565b610f69565b34801561066d57600080fd5b506102ea61067c3660046121fa565b610fc3565b34801561068d57600080fd5b506010546103ab90610100900460ff1681565b3480156106ac57600080fd5b506102ea6106bb3660046121fa565b611080565b3480156106cc57600080fd5b506010546103379062010000900460ff1681565b3480156106ec57600080fd5b50610358600e5481565b34801561070257600080fd5b5061033761071136600461214e565b600b6020526000908152604090205460ff1681565b34801561073257600080fd5b506102ea611130565b34801561074757600080fd5b50610358610756366004612226565b6001600160a01b03918216600090815260016020908152604080832093909416825291909152205490565b34801561078d57600080fd5b506102ea61079c36600461214e565b61119e565b3480156107ad57600080fd5b50610358600d5481565b3480156107c357600080fd5b506102ea6107d236600461214e565b61122b565b3480156107e357600080fd5b50600c546103379060ff1681565b6107f9611266565b63ffffffff8084169085166108106009600a612359565b61081e906319bfcc00612368565b6108289190612368565b610832919061237f565b600d5563ffffffff80821690831661084c6009600a612359565b61085a906319bfcc00612368565b6108649190612368565b61086e919061237f565b600e819055600d5411156108c95760405162461bcd60e51b815260206004820152600c60248201527f4d696e4d6178206572726f72000000000000000000000000000000000000000060448201526064015b60405180910390fd5b6127106108d86009600a612359565b6108e6906319bfcc00612368565b6108f0919061237f565b600e54116109405760405162461bcd60e51b815260206004820152601760248201527f5570706572207468726573686f6c6420746f6f206c6f7700000000000000000060448201526064016108c0565b606461094e6009600a612359565b61095c906319bfcc00612368565b610967906002612368565b610971919061237f565b600e54106109c15760405162461bcd60e51b815260206004820152601860248201527f5570706572207468726573686f6c6420746f6f2068696768000000000000000060448201526064016108c0565b50505050565b6060600380546109d6906123a1565b80601f0160208091040260200160405190810160405280929190818152602001828054610a02906123a1565b8015610a4f5780601f10610a2457610100808354040283529160200191610a4f565b820191906000526020600020905b815481529060010190602001808311610a3257829003601f168201915b5050505050905090565b600033610a67818585611299565b60019150505b92915050565b610a7b611266565b4780610ac95760405162461bcd60e51b815260206004820181905260248201527f4e6f2045544820696e20636f6e747261637420746f206469737472696275746560448201526064016108c0565b610ad2816112a6565b50565b6000610adf6112e0565b610b1e5760405162461bcd60e51b815260206004820152601060248201526f2a3930b234b733903737ba1037b832b760811b60448201526064016108c0565b610b29848484611318565b509392505050565b610b39611266565b610b4161133c565b565b610ad2338261138e565b610b55611266565b60108054911515620100000262ff000019909216919091179055565b610b79611266565b600c5460ff1615610bcc5760405162461bcd60e51b815260206004820152601460248201527f74726164696e6720616c7265616479206f70656e00000000000000000000000060448201526064016108c0565b610bd46113c4565b4780610c225760405162461bcd60e51b815260206004820152601260248201527f6e6f2065746820696e20636f6e7472616374000000000000000000000000000060448201526064016108c0565b3060009081526020819052604090205480610c7f5760405162461bcd60e51b815260206004820152600960248201527f6e6f20746f6b656e73000000000000000000000000000000000000000000000060448201526064016108c0565b6000601360019054906101000a90046001600160a01b03166001600160a01b031663c45a01556040518163ffffffff1660e01b8152600401602060405180830381865afa158015610cd4573d6000803e3d6000fd5b505050506040513d601f19601f82011682018060405250810190610cf891906123db565b6001600160a01b031663c9c6539630601360019054906101000a90046001600160a01b03166001600160a01b031663ad5c46486040518163ffffffff1660e01b8152600401602060405180830381865afa158015610d5a573d6000803e3d6000fd5b505050506040513d601f19601f82011682018060405250810190610d7e91906123db565b6040517fffffffff0000000000000000000000000000000000000000000000000000000060e085901b1681526001600160a01b039283166004820152911660248201526044016020604051808303816000875af1158015610de3573d6000803e3d6000fd5b505050506040513d601f19601f82011682018060405250810190610e0791906123db565b6001600160a01b0381166000908152600f60205260409020805460ff191660011790559050610e358261146c565b610e41828460006114c2565b505050565b610e4e611266565b610b41600061157f565b610e638233836115f0565b610e6d828261138e565b5050565b610e79611266565b610b41611668565b610e89611266565b610b416116a5565b6060600480546109d6906123a1565b610ea8611266565b600560ff831611801590610ec05750600560ff821611155b610f0c5760405162461bcd60e51b815260206004820152600c60248201527f54617820746f6f2068696768000000000000000000000000000000000000000060448201526064016108c0565b6010805460ff84811661ffff199092168217610100918516918202179092556040805191825260208201929092527f1dcee7b4b427ba2551f752d6f3ff03de326f6a4fca7432dda760ccff555f27f3910160405180910390a15050565b6000610f736112e0565b610fb25760405162461bcd60e51b815260206004820152601060248201526f2a3930b234b733903737ba1037b832b760811b60448201526064016108c0565b610fbc8383611707565b5092915050565b610fcb611266565b8015611055576001600160a01b0382163014801590610ffd57506005546001600160a01b038381166101009092041614155b6110555760405162461bcd60e51b8152602060048201526024808201527f43616e6e6f7420656e666f726365206665657320666f722074686973206164646044820152637265737360e01b60648201526084016108c0565b6001600160a01b03919091166000908152600b60205260409020805460ff1916911515919091179055565b611088611266565b80611105576001600160a01b03821630148015906110b957506005546001600160a01b038381166101009092041614155b6111055760405162461bcd60e51b815260206004820152601d60248201527f546869732061646472657373206d757374206265206578636c7564656400000060448201526064016108c0565b6001600160a01b03919091166000908152601160205260409020805460ff1916911515919091179055565b611138611266565b30600090815260208190526040902054806111955760405162461bcd60e51b815260206004820152600960248201527f4e6f20746f6b656e73000000000000000000000000000000000000000000000060448201526064016108c0565b610ad281611715565b6111a6611266565b600680547fffffffffffffffffffffffff0000000000000000000000000000000000000000166001600160a01b0383169081179091556000818152600b6020908152604091829020805460ff1916600117905590519182527ea263b61aab5ebdcff20c4c0c74c2589ea5ab52149abde19eca17ad52217899910160405180910390a150565b611233611266565b6001600160a01b03811661125d57604051631e4fbdf760e01b8152600060048201526024016108c0565b610ad28161157f565b6005546001600160a01b03610100909104163314610b415760405163118cdaa760e01b81523360048201526024016108c0565b610e418383836001611880565b6006546040516001600160a01b039091169082156108fc029083906000818181858888f19350505050158015610e6d573d6000803e3d6000fd5b600c54600090819060ff16156112f857506001919050565b60055461010090046001600160a01b03163203611313575060015b919050565b6000336113268582856115f0565b611331858585611955565b506001949350505050565b6113446119b4565b6005805460ff191690557f5db9ee0a495bf2e6ff9c91a7834c1ba4fdd244a5e8aa4e537bd38aeae4b073aa335b6040516001600160a01b03909116815260200160405180910390a1565b6001600160a01b0382166113b857604051634b637e8f60e11b8152600060048201526024016108c0565b610e6d826000836119d7565b600a80546113f7916001600160a01b03909116906113e490600990612359565b6113f2906305f5e100612368565b611b15565b600754611413906001600160a01b03166113e46009600a612359565b60085461142f906001600160a01b03166113e46009600a612359565b6009805461145c916001600160a01b039091169061144e90600a612359565b6113f2906301e84800612368565b610b41306113e46009600a612359565b306000908152600160209081526040808320737a250d5630b4cf539739df2c5dacb4c659f2488d8452909152902054811115610ad257610e6d737a250d5630b4cf539739df2c5dacb4c659f2488d600019610a59565b6000816114dd5760055461010090046001600160a01b031690505b60135460405163f305d71960e01b81523060048201526024810186905260006044820181905260648201526001600160a01b0383811660848301524260a48301526101009092049091169063f305d71990859060c40160606040518083038185885af1158015611551573d6000803e3d6000fd5b50505050506040513d601f19601f8201168201806040525081019061157691906123f8565b50505050505050565b600580546001600160a01b038381166101008181027fffffffffffffffffffffff0000000000000000000000000000000000000000ff85161790945560405193909204169182907f8be0079c531659141344cd1fd0a4f28419497f9722a3daafe3b4186f6b6457e090600090a35050565b6001600160a01b0383811660009081526001602090815260408083209386168352929052205460001981146109c1578181101561165957604051637dc7a0d960e11b81526001600160a01b038416600482015260248101829052604481018390526064016108c0565b6109c184848484036000611880565b611670611b4b565b6005805460ff191660011790557f62e78cea01bee320cd4e420270b5ea74000d11b0c9f74754ebdbfc544b05a2586113713390565b600c5460ff16156116f85760405162461bcd60e51b815260206004820152601460248201527f74726164696e6720616c7265616479206f70656e00000000000000000000000060448201526064016108c0565b600c805460ff19166001179055565b600033610a67818585611955565b61171e8161146c565b604080516002808252606082018352600092602083019080368337019050509050308160008151811061175357611753612426565b60200260200101906001600160a01b031690816001600160a01b031681525050601360019054906101000a90046001600160a01b03166001600160a01b031663ad5c46486040518163ffffffff1660e01b8152600401602060405180830381865afa1580156117c6573d6000803e3d6000fd5b505050506040513d601f19601f820116820180604052508101906117ea91906123db565b816001815181106117fd576117fd612426565b6001600160a01b03928316602091820292909201015260135460405163791ac94760e01b81526101009091049091169063791ac9479061184a90859060009086903090429060040161243c565b600060405180830381600087803b15801561186457600080fd5b505af1158015611878573d6000803e3d6000fd5b505050505050565b6001600160a01b0384166118aa5760405163e602df0560e01b8152600060048201526024016108c0565b6001600160a01b0383166118d457604051634a1406b160e11b8152600060048201526024016108c0565b6001600160a01b03808516600090815260016020908152604080832093871683529290522082905580156109c157826001600160a01b0316846001600160a01b03167f8c5be1e5ebec7d5bd14f71427d1e84f3dd0314c0f7b2291e5b200ac8c7c3b9258460405161194791815260200190565b60405180910390a350505050565b6001600160a01b03831661197f57604051634b637e8f60e11b8152600060048201526024016108c0565b6001600160a01b0382166119a95760405163ec442f0560e01b8152600060048201526024016108c0565b610e418383836119d7565b60055460ff16610b4157604051638dfc202b60e01b815260040160405180910390fd5b6001600160a01b0383166000908152600f602052604081205460ff1680611a1657506001600160a01b0383166000908152600f602052604090205460ff165b905060008180611a5a575060135460ff16158015611a4c57506001600160a01b0384166000908152600f602052604090205460ff165b8015611a5a5750600c5460ff165b90508015611a6a57611a6a611b6f565b600c5460ff168015611a84575060105462010000900460ff165b15611a9357611a938585611bf0565b6001600160a01b0385166000908152600b6020526040902054839060ff16158015611ad757506001600160a01b0385166000908152600b602052604090205460ff16155b15611b0a576000611ae9878787611d84565b9050611af581836124af565b91508015611b0857611b088730836119d7565b505b611878868683611e6d565b6001600160a01b038216611b3f5760405163ec442f0560e01b8152600060048201526024016108c0565b610e6d600083836119d7565b60055460ff1615610b415760405163d93c066560e01b815260040160405180910390fd5b6013805460ff19166001179055306000908152602081905260408120549050600d548110158015611ba25750600c5460ff165b15611be357600e548110611bb55750600e545b611bc16009600a612359565b811115611be357611bd181611715565b478015611be157611be1816112a6565b505b506013805460ff19169055565b6001600160a01b0382166000908152600f602052604090205460ff168015611c3157506001600160a01b03811660009081526011602052604090205460ff16155b15611cba576001600160a01b0381166000908152601260205260409020544311611c9d5760405162461bcd60e51b815260206004820152601160248201527f416e7469426f742074726967676572656400000000000000000000000000000060448201526064016108c0565b6001600160a01b0316600090815260126020526040902043905550565b6001600160a01b0381166000908152600f602052604090205460ff168015611cfb57506001600160a01b03821660009081526011602052604090205460ff16155b15610e6d576001600160a01b0382166000908152601260205260409020544311611d675760405162461bcd60e51b815260206004820152601160248201527f416e7469426f742074726967676572656400000000000000000000000000000060448201526064016108c0565b506001600160a01b03166000908152601260205260409020439055565b600c54600090819060ff161580611db357506001600160a01b0385166000908152600b602052604090205460ff165b80611dd657506001600160a01b0384166000908152600b602052604090205460ff165b15611de357506000611e65565b6001600160a01b0385166000908152600f602052604090205460ff1615611e2857601054606490611e179060ff1685612368565b611e21919061237f565b9050611e65565b6001600160a01b0384166000908152600f602052604090205460ff1615611e6157601054606490611e1790610100900460ff1685612368565b5060005b949350505050565b611e78838383611edd565b6001600160a01b038316610e41576002547f00000000000000000000000000000000000000000000000000000000000000009081811115611ed65760405163279e7e1560e21b815260048101829052602481018390526044016108c0565b5050505050565b611ee5611b4b565b610e418383836001600160a01b038316611f16578060026000828254611f0b91906124c2565b90915550611f889050565b6001600160a01b03831660009081526020819052604090205481811015611f695760405163391434e360e21b81526001600160a01b038516600482015260248101829052604481018390526064016108c0565b6001600160a01b03841660009081526020819052604090209082900390555b6001600160a01b038216611fa457600280548290039055611fc3565b6001600160a01b03821660009081526020819052604090208054820190555b816001600160a01b0316836001600160a01b03167fddf252ad1be2c89b69c2b068fc378daa952ba7f163c4a11628f55a4df523b3ef8360405161200891815260200190565b60405180910390a3505050565b803563ffffffff8116811461131357600080fd5b6000806000806080858703121561203f57600080fd5b61204885612015565b935061205660208601612015565b925061206460408601612015565b915061207260608601612015565b905092959194509250565b60006020808352835180602085015260005b818110156120ab5785810183015185820160400152820161208f565b506000604082860101526040601f19601f8301168501019250505092915050565b6001600160a01b0381168114610ad257600080fd5b600080604083850312156120f457600080fd5b82356120ff816120cc565b946020939093013593505050565b60008060006060848603121561212257600080fd5b833561212d816120cc565b9250602084013561213d816120cc565b929592945050506040919091013590565b60006020828403121561216057600080fd5b813561216b816120cc565b9392505050565b60006020828403121561218457600080fd5b5035919050565b8035801515811461131357600080fd5b6000602082840312156121ad57600080fd5b61216b8261218b565b803560ff8116811461131357600080fd5b600080604083850312156121da57600080fd5b6121e3836121b6565b91506121f1602084016121b6565b90509250929050565b6000806040838503121561220d57600080fd5b8235612218816120cc565b91506121f16020840161218b565b6000806040838503121561223957600080fd5b8235612244816120cc565b91506020830135612254816120cc565b809150509250929050565b634e487b7160e01b600052601160045260246000fd5b600181815b808511156122b05781600019048211156122965761229661225f565b808516156122a357918102915b93841c939080029061227a565b509250929050565b6000826122c757506001610a6d565b816122d457506000610a6d565b81600181146122ea57600281146122f457612310565b6001915050610a6d565b60ff8411156123055761230561225f565b50506001821b610a6d565b5060208310610133831016604e8410600b8410161715612333575081810a610a6d565b61233d8383612275565b80600019048211156123515761235161225f565b029392505050565b600061216b60ff8416836122b8565b8082028115828204841417610a6d57610a6d61225f565b60008261239c57634e487b7160e01b600052601260045260246000fd5b500490565b600181811c908216806123b557607f821691505b6020821081036123d557634e487b7160e01b600052602260045260246000fd5b50919050565b6000602082840312156123ed57600080fd5b815161216b816120cc565b60008060006060848603121561240d57600080fd5b8351925060208401519150604084015190509250925092565b634e487b7160e01b600052603260045260246000fd5b600060a08201878352602087602085015260a0604085015281875180845260c08601915060208901935060005b8181101561248e5784516001600160a01b031683529383019391830191600101612469565b50506001600160a01b03969096166060850152505050608001529392505050565b81810381811115610a6d57610a6d61225f565b80820180821115610a6d57610a6d61225f56fea164736f6c6343000818000a",
  "linkReferences": {},
  "deployedLinkReferences": {}
}