{
  "_format": "hh-sol-artifact-1",
  "contractName": "TORC",
  "sourceName": "contracts/TORC.sol",
  "abi": [
    {
      "inputs": [
        {
          "internalType": "address",
          "name": "_taxWallet",
          "type": "address"
        },
        {
          "internalType": "address",
          "name": "_treasuryWallet",
          "type": "address"
        },
        {
          "internalType": "address",
          "name": "_devWallet",
          "type": "address"
        },
        {
          "internalType": "address",
          "name": "_marketingWallet",
          "type": "address"
        },
        {
          "internalType": "address",
          "name": "_teamWallet",
          "type": "address"
        }
      ],
      "stateMutability": "nonpayable",
      "type": "constructor"
    },
    {
      "inputs": [],
      "name": "AccessControlBadConfirmation",
      "type": "error"
    },
    {
      "inputs": [
        {
          "internalType": "address",
          "name": "account",
          "type": "address"
        },
        {
          "internalType": "bytes32",
          "name": "neededRole",
          "type": "bytes32"
        }
      ],
      "name": "AccessControlUnauthorizedAccount",
      "type": "error"
    },
    {
      "inputs": [],
      "name": "ECDSAInvalidSignature",
      "type": "error"
    },
    {
      "inputs": [
        {
          "internalType": "uint256",
          "name": "length",
          "type": "uint256"
        }
      ],
      "name": "ECDSAInvalidSignatureLength",
      "type": "error"
    },
    {
      "inputs": [
        {
          "internalType": "bytes32",
          "name": "s",
          "type": "bytes32"
        }
      ],
      "name": "ECDSAInvalidSignatureS",
      "type": "error"
    },
    {
      "inputs": [
        {
          "internalType": "address",
          "name": "spender",
          "type": "address"
        },
        {
          "internalType": "uint256",
          "name": "allowance",
          "type": "uint256"
        },
        {
          "internalType": "uint256",
          "name": "needed",
          "type": "uint256"
        }
      ],
      "name": "ERC20InsufficientAllowance",
      "type": "error"
    },
    {
      "inputs": [
        {
          "internalType": "address",
          "name": "sender",
          "type": "address"
        },
        {
          "internalType": "uint256",
          "name": "balance",
          "type": "uint256"
        },
        {
          "internalType": "uint256",
          "name": "needed",
          "type": "uint256"
        }
      ],
      "name": "ERC20InsufficientBalance",
      "type": "error"
    },
    {
      "inputs": [
        {
          "internalType": "address",
          "name": "approver",
          "type": "address"
        }
      ],
      "name": "ERC20InvalidApprover",
      "type": "error"
    },
    {
      "inputs": [
        {
          "internalType": "address",
          "name": "receiver",
          "type": "address"
        }
      ],
      "name": "ERC20InvalidReceiver",
      "type": "error"
    },
    {
      "inputs": [
        {
          "internalType": "address",
          "name": "sender",
          "type": "address"
        }
      ],
      "name": "ERC20InvalidSender",
      "type": "error"
    },
    {
      "inputs": [
        {
          "internalType": "address",
          "name": "spender",
          "type": "address"
        }
      ],
      "name": "ERC20InvalidSpender",
      "type": "error"
    },
    {
      "inputs": [
        {
          "internalType": "uint256",
          "name": "deadline",
          "type": "uint256"
        }
      ],
      "name": "ERC2612ExpiredSignature",
      "type": "error"
    },
    {
      "inputs": [
        {
          "internalType": "address",
          "name": "signer",
          "type": "address"
        },
        {
          "internalType": "address",
          "name": "owner",
          "type": "address"
        }
      ],
      "name": "ERC2612InvalidSigner",
      "type": "error"
    },
    {
      "inputs": [
        {
          "internalType": "address",
          "name": "account",
          "type": "address"
        },
        {
          "internalType": "uint256",
          "name": "currentNonce",
          "type": "uint256"
        }
      ],
      "name": "InvalidAccountNonce",
      "type": "error"
    },
    {
      "inputs": [],
      "name": "InvalidShortString",
      "type": "error"
    },
    {
      "inputs": [
        {
          "internalType": "string",
          "name": "str",
          "type": "string"
        }
      ],
      "name": "StringTooLong",
      "type": "error"
    },
    {
      "anonymous": false,
      "inputs": [
        {
          "indexed": true,
          "internalType": "address",
          "name": "owner",
          "type": "address"
        },
        {
          "indexed": true,
          "internalType": "address",
          "name": "spender",
          "type": "address"
        },
        {
          "indexed": false,
          "internalType": "uint256",
          "name": "value",
          "type": "uint256"
        }
      ],
      "name": "Approval",
      "type": "event"
    },
    {
      "anonymous": false,
      "inputs": [],
      "name": "EIP712DomainChanged",
      "type": "event"
    },
    {
      "anonymous": false,
      "inputs": [
        {
          "indexed": true,
          "internalType": "bytes32",
          "name": "role",
          "type": "bytes32"
        },
        {
          "indexed": true,
          "internalType": "bytes32",
          "name": "previousAdminRole",
          "type": "bytes32"
        },
        {
          "indexed": true,
          "internalType": "bytes32",
          "name": "newAdminRole",
          "type": "bytes32"
        }
      ],
      "name": "RoleAdminChanged",
      "type": "event"
    },
    {
      "anonymous": false,
      "inputs": [
        {
          "indexed": true,
          "internalType": "bytes32",
          "name": "role",
          "type": "bytes32"
        },
        {
          "indexed": true,
          "internalType": "address",
          "name": "account",
          "type": "address"
        },
        {
          "indexed": true,
          "internalType": "address",
          "name": "sender",
          "type": "address"
        }
      ],
      "name": "RoleGranted",
      "type": "event"
    },
    {
      "anonymous": false,
      "inputs": [
        {
          "indexed": true,
          "internalType": "bytes32",
          "name": "role",
          "type": "bytes32"
        },
        {
          "indexed": true,
          "internalType": "address",
          "name": "account",
          "type": "address"
        },
        {
          "indexed": true,
          "internalType": "address",
          "name": "sender",
          "type": "address"
        }
      ],
      "name": "RoleRevoked",
      "type": "event"
    },
    {
      "anonymous": false,
      "inputs": [
        {
          "indexed": true,
          "internalType": "address",
          "name": "from",
          "type": "address"
        },
        {
          "indexed": true,
          "internalType": "address",
          "name": "to",
          "type": "address"
        },
        {
          "indexed": false,
          "internalType": "uint256",
          "name": "value",
          "type": "uint256"
        }
      ],
      "name": "Transfer",
      "type": "event"
    },
    {
      "inputs": [],
      "name": "DEFAULT_ADMIN_ROLE",
      "outputs": [
        {
          "internalType": "bytes32",
          "name": "",
          "type": "bytes32"
        }
      ],
      "stateMutability": "view",
      "type": "function"
    },
    {
      "inputs": [],
      "name": "DOMAIN_SEPARATOR",
      "outputs": [
        {
          "internalType": "bytes32",
          "name": "",
          "type": "bytes32"
        }
      ],
      "stateMutability": "view",
      "type": "function"
    },
    {
      "inputs": [
        {
          "internalType": "address",
          "name": "owner",
          "type": "address"
        },
        {
          "internalType": "address",
          "name": "spender",
          "type": "address"
        }
      ],
      "name": "allowance",
      "outputs": [
        {
          "internalType": "uint256",
          "name": "",
          "type": "uint256"
        }
      ],
      "stateMutability": "view",
      "type": "function"
    },
    {
      "inputs": [
        {
          "internalType": "address",
          "name": "spender",
          "type": "address"
        },
        {
          "internalType": "uint256",
          "name": "value",
          "type": "uint256"
        }
      ],
      "name": "approve",
      "outputs": [
        {
          "internalType": "bool",
          "name": "",
          "type": "bool"
        }
      ],
      "stateMutability": "nonpayable",
      "type": "function"
    },
    {
      "inputs": [
        {
          "internalType": "address",
          "name": "account",
          "type": "address"
        }
      ],
      "name": "balanceOf",
      "outputs": [
        {
          "internalType": "uint256",
          "name": "",
          "type": "uint256"
        }
      ],
      "stateMutability": "view",
      "type": "function"
    },
    {
      "inputs": [
        {
          "internalType": "uint256",
          "name": "value",
          "type": "uint256"
        }
      ],
      "name": "burn",
      "outputs": [],
      "stateMutability": "nonpayable",
      "type": "function"
    },
    {
      "inputs": [
        {
          "internalType": "address",
          "name": "account",
          "type": "address"
        },
        {
          "internalType": "uint256",
          "name": "value",
          "type": "uint256"
        }
      ],
      "name": "burnFrom",
      "outputs": [],
      "stateMutability": "nonpayable",
      "type": "function"
    },
    {
      "inputs": [],
      "name": "decimals",
      "outputs": [
        {
          "internalType": "uint8",
          "name": "",
          "type": "uint8"
        }
      ],
      "stateMutability": "view",
      "type": "function"
    },
    {
      "inputs": [],
      "name": "devWallet",
      "outputs": [
        {
          "internalType": "address payable",
          "name": "",
          "type": "address"
        }
      ],
      "stateMutability": "view",
      "type": "function"
    },
    {
      "inputs": [],
      "name": "eip712Domain",
      "outputs": [
        {
          "internalType": "bytes1",
          "name": "fields",
          "type": "bytes1"
        },
        {
          "internalType": "string",
          "name": "name",
          "type": "string"
        },
        {
          "internalType": "string",
          "name": "version",
          "type": "string"
        },
        {
          "internalType": "uint256",
          "name": "chainId",
          "type": "uint256"
        },
        {
          "internalType": "address",
          "name": "verifyingContract",
          "type": "address"
        },
        {
          "internalType": "bytes32",
          "name": "salt",
          "type": "bytes32"
        },
        {
          "internalType": "uint256[]",
          "name": "extensions",
          "type": "uint256[]"
        }
      ],
      "stateMutability": "view",
      "type": "function"
    },
    {
      "inputs": [
        {
          "internalType": "address",
          "name": "wallet",
          "type": "address"
        },
        {
          "internalType": "bool",
          "name": "isExcluded",
          "type": "bool"
        }
      ],
      "name": "excludeFromFees",
      "outputs": [],
      "stateMutability": "nonpayable",
      "type": "function"
    },
    {
      "inputs": [
        {
          "internalType": "address",
          "name": "",
          "type": "address"
        }
      ],
      "name": "excludedFromFees",
      "outputs": [
        {
          "internalType": "bool",
          "name": "",
          "type": "bool"
        }
      ],
      "stateMutability": "view",
      "type": "function"
    },
    {
      "inputs": [
        {
          "internalType": "bytes32",
          "name": "role",
          "type": "bytes32"
        }
      ],
      "name": "getRoleAdmin",
      "outputs": [
        {
          "internalType": "bytes32",
          "name": "",
          "type": "bytes32"
        }
      ],
      "stateMutability": "view",
      "type": "function"
    },
    {
      "inputs": [
        {
          "internalType": "bytes32",
          "name": "role",
          "type": "bytes32"
        },
        {
          "internalType": "address",
          "name": "account",
          "type": "address"
        }
      ],
      "name": "grantRole",
      "outputs": [],
      "stateMutability": "nonpayable",
      "type": "function"
    },
    {
      "inputs": [
        {
          "internalType": "bytes32",
          "name": "role",
          "type": "bytes32"
        },
        {
          "internalType": "address",
          "name": "account",
          "type": "address"
        }
      ],
      "name": "hasRole",
      "outputs": [
        {
          "internalType": "bool",
          "name": "",
          "type": "bool"
        }
      ],
      "stateMutability": "view",
      "type": "function"
    },
    {
      "inputs": [],
      "name": "marketingWallet",
      "outputs": [
        {
          "internalType": "address payable",
          "name": "",
          "type": "address"
        }
      ],
      "stateMutability": "view",
      "type": "function"
    },
    {
      "inputs": [],
      "name": "name",
      "outputs": [
        {
          "internalType": "string",
          "name": "",
          "type": "string"
        }
      ],
      "stateMutability": "view",
      "type": "function"
    },
    {
      "inputs": [
        {
          "internalType": "address",
          "name": "owner",
          "type": "address"
        }
      ],
      "name": "nonces",
      "outputs": [
        {
          "internalType": "uint256",
          "name": "",
          "type": "uint256"
        }
      ],
      "stateMutability": "view",
      "type": "function"
    },
    {
      "inputs": [
        {
          "internalType": "address",
          "name": "owner",
          "type": "address"
        },
        {
          "internalType": "address",
          "name": "spender",
          "type": "address"
        },
        {
          "internalType": "uint256",
          "name": "value",
          "type": "uint256"
        },
        {
          "internalType": "uint256",
          "name": "deadline",
          "type": "uint256"
        },
        {
          "internalType": "uint8",
          "name": "v",
          "type": "uint8"
        },
        {
          "internalType": "bytes32",
          "name": "r",
          "type": "bytes32"
        },
        {
          "internalType": "bytes32",
          "name": "s",
          "type": "bytes32"
        }
      ],
      "name": "permit",
      "outputs": [],
      "stateMutability": "nonpayable",
      "type": "function"
    },
    {
      "inputs": [
        {
          "internalType": "bytes32",
          "name": "role",
          "type": "bytes32"
        },
        {
          "internalType": "address",
          "name": "callerConfirmation",
          "type": "address"
        }
      ],
      "name": "renounceRole",
      "outputs": [],
      "stateMutability": "nonpayable",
      "type": "function"
    },
    {
      "inputs": [
        {
          "internalType": "bytes32",
          "name": "role",
          "type": "bytes32"
        },
        {
          "internalType": "address",
          "name": "account",
          "type": "address"
        }
      ],
      "name": "revokeRole",
      "outputs": [],
      "stateMutability": "nonpayable",
      "type": "function"
    },
    {
      "inputs": [
        {
          "internalType": "address",
          "name": "wallet",
          "type": "address"
        },
        {
          "internalType": "bool",
          "name": "isLiquidityPool",
          "type": "bool"
        }
      ],
      "name": "setLiquidityPool",
      "outputs": [],
      "stateMutability": "nonpayable",
      "type": "function"
    },
    {
      "inputs": [
        {
          "internalType": "uint8",
          "name": "buyRate",
          "type": "uint8"
        },
        {
          "internalType": "uint8",
          "name": "sellRate",
          "type": "uint8"
        }
      ],
      "name": "setTaxRate",
      "outputs": [],
      "stateMutability": "nonpayable",
      "type": "function"
    },
    {
      "inputs": [
        {
          "internalType": "bytes4",
          "name": "interfaceId",
          "type": "bytes4"
        }
      ],
      "name": "supportsInterface",
      "outputs": [
        {
          "internalType": "bool",
          "name": "",
          "type": "bool"
        }
      ],
      "stateMutability": "view",
      "type": "function"
    },
    {
      "inputs": [],
      "name": "symbol",
      "outputs": [
        {
          "internalType": "string",
          "name": "",
          "type": "string"
        }
      ],
      "stateMutability": "view",
      "type": "function"
    },
    {
      "inputs": [],
      "name": "taxRateBuy",
      "outputs": [
        {
          "internalType": "uint8",
          "name": "",
          "type": "uint8"
        }
      ],
      "stateMutability": "view",
      "type": "function"
    },
    {
      "inputs": [],
      "name": "taxRateSell",
      "outputs": [
        {
          "internalType": "uint8",
          "name": "",
          "type": "uint8"
        }
      ],
      "stateMutability": "view",
      "type": "function"
    },
    {
      "inputs": [],
      "name": "taxSwapMax",
      "outputs": [
        {
          "internalType": "uint256",
          "name": "",
          "type": "uint256"
        }
      ],
      "stateMutability": "view",
      "type": "function"
    },
    {
      "inputs": [],
      "name": "taxSwapMin",
      "outputs": [
        {
          "internalType": "uint256",
          "name": "",
          "type": "uint256"
        }
      ],
      "stateMutability": "view",
      "type": "function"
    },
    {
      "inputs": [],
      "name": "teamWallet",
      "outputs": [
        {
          "internalType": "address payable",
          "name": "",
          "type": "address"
        }
      ],
      "stateMutability": "view",
      "type": "function"
    },
    {
      "inputs": [],
      "name": "totalSupply",
      "outputs": [
        {
          "internalType": "uint256",
          "name": "",
          "type": "uint256"
        }
      ],
      "stateMutability": "view",
      "type": "function"
    },
    {
      "inputs": [
        {
          "internalType": "address",
          "name": "to",
          "type": "address"
        },
        {
          "internalType": "uint256",
          "name": "value",
          "type": "uint256"
        }
      ],
      "name": "transfer",
      "outputs": [
        {
          "internalType": "bool",
          "name": "",
          "type": "bool"
        }
      ],
      "stateMutability": "nonpayable",
      "type": "function"
    },
    {
      "inputs": [
        {
          "internalType": "address",
          "name": "from",
          "type": "address"
        },
        {
          "internalType": "address",
          "name": "to",
          "type": "address"
        },
        {
          "internalType": "uint256",
          "name": "value",
          "type": "uint256"
        }
      ],
      "name": "transferFrom",
      "outputs": [
        {
          "internalType": "bool",
          "name": "",
          "type": "bool"
        }
      ],
      "stateMutability": "nonpayable",
      "type": "function"
    },
    {
      "inputs": [],
      "name": "treasuryWallet",
      "outputs": [
        {
          "internalType": "address payable",
          "name": "",
          "type": "address"
        }
      ],
      "stateMutability": "view",
      "type": "function"
    },
    {
      "inputs": [],
      "name": "uniswapRouterV2Address",
      "outputs": [
        {
          "internalType": "address payable",
          "name": "",
          "type": "address"
        }
      ],
      "stateMutability": "view",
      "type": "function"
    }
  ],
  "bytecode": "0x6101606040523480156200001257600080fd5b50604051620025cb380380620025cb83398101604081905262000035916200083d565b60405180604001604052806004815260200163546f726360e01b81525080604051806040016040528060018152602001603160f81b81525060405180604001604052806004815260200163546f726360e01b81525060405180604001604052806004815260200163544f524360e01b8152508160039081620000b8919062000954565b506004620000c7828262000954565b50620000d9915083905060056200030c565b61012052620000ea8160066200030c565b61014052815160208084019190912060e052815190820120610100524660a0526200017860e05161010051604080517f8b73c3c69bb8fe3d512ecc4cf759cc79239f7b179b0ffacaa9a75d522b39400f60208201529081019290925260608201524660808201523060a082015260009060c00160405160208183030381529060405280519060200120905090565b60805250503060c05250600c80546001600160a01b03199081166001600160a01b0388811691909117909255600d80548216878416179055601080548216868416179055600e80548216858416179055600f8054909116918316919091179055612710620001e560025490565b620001f290600a62000a36565b620001fe919062000a50565b600a556127106200020e60025490565b6200021b90603262000a36565b62000227919062000a50565b600b55336000908152601260205260408082208054600160ff19918216811790925530845282842080548216831790557f7e7fa33969761a458e04f477e039a608702b4f924981d6653935a8319a08ad7b80548216831790556001600160a01b03898116855283852080548316841790558881168552838520805483168417905587811685528385208054831684179055868116855283852080548316841790558516845291909220805490911690911790556009805461ffff1916610303179055620002f362000345565b62000300600033620003ec565b50505050505062000c2a565b60006020835110156200032c5762000324836200049e565b90506200033f565b8162000339848262000954565b5060ff90505b92915050565b6010546200037c906001600160a01b031660125b6200036690600a62000b70565b62000376906305f5e10062000a36565b620004ea565b600d5462000395906001600160a01b0316601262000359565b600e54620003ae906001600160a01b0316601262000359565b600f54620003dd906001600160a01b0316620003cd6012600a62000b70565b62000376906301e8480062000a36565b620003ea33601262000359565b565b60008281526008602090815260408083206001600160a01b038516845290915281205460ff16620004955760008381526008602090815260408083206001600160a01b03861684529091529020805460ff191660011790556200044c3390565b6001600160a01b0316826001600160a01b0316847f2f8788117e7eff1d82e926ec794901d17c78024a50270940304540a733656f0d60405160405180910390a45060016200033f565b5060006200033f565b600080829050601f81511115620004d5578260405163305a27a960e01b8152600401620004cc919062000b88565b60405180910390fd5b8051620004e28262000bd9565b179392505050565b6001600160a01b038216620005165760405163ec442f0560e01b815260006004820152602401620004cc565b620005246000838362000528565b5050565b6001600160a01b03831660009081526013602052604081205460ff16806200056857506001600160a01b03831660009081526013602052604090205460ff165b6001600160a01b038516600090815260126020526040902054909150829060ff16158015620005b057506001600160a01b03841660009081526012602052604090205460ff16155b8015620005ba5750815b15620005f5576000620005cf86868662000609565b9050620005dd818362000bfe565b91508015620005f357620005f386308362000528565b505b62000602858583620006ed565b5050505050565b6001600160a01b038316600090815260126020526040812054819060ff16806200064b57506001600160a01b03841660009081526012602052604090205460ff165b156200065a57506000620006e5565b6001600160a01b03851660009081526013602052604090205460ff1615620006a557600954606490620006919060ff168562000a36565b6200069d919062000a50565b9050620006e5565b6001600160a01b03841660009081526013602052604090205460ff1615620006e1576009546064906200069190610100900460ff168562000a36565b5060005b949350505050565b6001600160a01b0383166200071c57806002600082825462000710919062000c14565b90915550620007909050565b6001600160a01b03831660009081526020819052604090205481811015620007715760405163391434e360e21b81526001600160a01b03851660048201526024810182905260448101839052606401620004cc565b6001600160a01b03841660009081526020819052604090209082900390555b6001600160a01b038216620007ae57600280548290039055620007cd565b6001600160a01b03821660009081526020819052604090208054820190555b816001600160a01b0316836001600160a01b03167fddf252ad1be2c89b69c2b068fc378daa952ba7f163c4a11628f55a4df523b3ef836040516200081391815260200190565b60405180910390a3505050565b80516001600160a01b03811681146200083857600080fd5b919050565b600080600080600060a086880312156200085657600080fd5b620008618662000820565b9450620008716020870162000820565b9350620008816040870162000820565b9250620008916060870162000820565b9150620008a16080870162000820565b90509295509295909350565b634e487b7160e01b600052604160045260246000fd5b600181811c90821680620008d857607f821691505b602082108103620008f957634e487b7160e01b600052602260045260246000fd5b50919050565b601f8211156200094f576000816000526020600020601f850160051c810160208610156200092a5750805b601f850160051c820191505b818110156200094b5782815560010162000936565b5050505b505050565b81516001600160401b03811115620009705762000970620008ad565b6200098881620009818454620008c3565b84620008ff565b602080601f831160018114620009c05760008415620009a75750858301515b600019600386901b1c1916600185901b1785556200094b565b600085815260208120601f198616915b82811015620009f157888601518255948401946001909101908401620009d0565b508582101562000a105787850151600019600388901b60f8161c191681555b5050505050600190811b01905550565b634e487b7160e01b600052601160045260246000fd5b80820281158282048414176200033f576200033f62000a20565b60008262000a6e57634e487b7160e01b600052601260045260246000fd5b500490565b600181815b8085111562000ab457816000190482111562000a985762000a9862000a20565b8085161562000aa657918102915b93841c939080029062000a78565b509250929050565b60008262000acd575060016200033f565b8162000adc575060006200033f565b816001811462000af5576002811462000b005762000b20565b60019150506200033f565b60ff84111562000b145762000b1462000a20565b50506001821b6200033f565b5060208310610133831016604e8410600b841016171562000b45575081810a6200033f565b62000b51838362000a73565b806000190482111562000b685762000b6862000a20565b029392505050565b600062000b8160ff84168362000abc565b9392505050565b60006020808352835180602085015260005b8181101562000bb85785810183015185820160400152820162000b9a565b506000604082860101526040601f19601f8301168501019250505092915050565b80516020808301519190811015620008f95760001960209190910360031b1b16919050565b818103818111156200033f576200033f62000a20565b808201808211156200033f576200033f62000a20565b60805160a05160c05160e05161010051610120516101405161194662000c856000396000610e4901526000610e1c01526000610d0701526000610cdf01526000610c3a01526000610c6401526000610c8e01526119466000f3fe608060405234801561001057600080fd5b50600436106102415760003560e01c806380781cf911610145578063c29c669a116100bd578063d940ef4d1161008c578063dbe66ca011610071578063dbe66ca0146104fa578063dd62ed3e1461051d578063eb8199481461055657600080fd5b8063d940ef4d146104de578063db861599146104f157600080fd5b8063c29c669a14610493578063cc18e05a146104a6578063d505accf146104b8578063d547741f146104cb57600080fd5b806395d89b4111610114578063a4d6e09f116100f9578063a4d6e09f1461045a578063a9059cbb1461046d578063c02466681461048057600080fd5b806395d89b411461044a578063a217fddf1461045257600080fd5b806380781cf9146103d657806384b0196e146103e35780638ea5220f146103fe57806391d148541461041157600080fd5b80633644e515116101d857806359927044116101a757806375f0a8741161018c57806375f0a8741461039d57806379cc6790146103b05780637ecebe00146103c357600080fd5b8063599270441461036157806370a082311461037457600080fd5b80633644e5151461030857806336568abe1461031057806342966c68146103235780634626402b1461033657600080fd5b806323b872dd1161021457806323b872dd146102a8578063248a9ca3146102bb5780632f2ff15d146102de578063313ce567146102f357600080fd5b806301ffc9a71461024657806306fdde031461026e578063095ea7b31461028357806318160ddd14610296575b600080fd5b610259610254366004611564565b61055f565b60405190151581526020015b60405180910390f35b610276610596565b60405161026591906115db565b61025961029136600461160a565b610628565b6002545b604051908152602001610265565b6102596102b6366004611634565b610640565b61029a6102c9366004611670565b60009081526008602052604090206001015490565b6102f16102ec366004611689565b610664565b005b60125b60405160ff9091168152602001610265565b61029a61068f565b6102f161031e366004611689565b61069e565b6102f1610331366004611670565b6106d6565b600d54610349906001600160a01b031681565b6040516001600160a01b039091168152602001610265565b600f54610349906001600160a01b031681565b61029a6103823660046116b5565b6001600160a01b031660009081526020819052604090205490565b600e54610349906001600160a01b031681565b6102f16103be36600461160a565b6106e3565b61029a6103d13660046116b5565b6106fc565b6009546102f69060ff1681565b6103eb61071a565b60405161026597969594939291906116d0565b601054610349906001600160a01b031681565b61025961041f366004611689565b60009182526008602090815260408084206001600160a01b0393909316845291905290205460ff1690565b610276610760565b61029a600081565b6102f161046836600461177a565b61076f565b61025961047b36600461160a565b610808565b6102f161048e3660046117a4565b610816565b6102f16104a13660046117a4565b6108fb565b6009546102f690610100900460ff1681565b6102f16104c63660046117e0565b610932565b6102f16104d9366004611689565b610a6c565b601154610349906001600160a01b031681565b61029a600b5481565b6102596105083660046116b5565b60126020526000908152604090205460ff1681565b61029a61052b36600461184a565b6001600160a01b03918216600090815260016020908152604080832093909416825291909152205490565b61029a600a5481565b60006001600160e01b03198216637965db0b60e01b148061059057506301ffc9a760e01b6001600160e01b03198316145b92915050565b6060600380546105a590611874565b80601f01602080910402602001604051908101604052809291908181526020018280546105d190611874565b801561061e5780601f106105f35761010080835404028352916020019161061e565b820191906000526020600020905b81548152906001019060200180831161060157829003601f168201915b5050505050905090565b600033610636818585610a91565b5060019392505050565b60003361064e858285610a9e565b610659858585610b16565b506001949350505050565b60008281526008602052604090206001015461067f81610b75565b6106898383610b7f565b50505050565b6000610699610c2d565b905090565b6001600160a01b03811633146106c75760405163334bd91960e11b815260040160405180910390fd5b6106d18282610d58565b505050565b6106e03382610ddf565b50565b6106ee823383610a9e565b6106f88282610ddf565b5050565b6001600160a01b038116600090815260076020526040812054610590565b60006060806000806000606061072e610e15565b610736610e42565b60408051600080825260208201909252600f60f81b9b939a50919850469750309650945092509050565b6060600480546105a590611874565b600061077a81610b75565b600560ff8416118015906107925750600560ff831611155b6107e35760405162461bcd60e51b815260206004820152601960248201527f54617820726174652063616e6e6f74206578636565642035250000000000000060448201526064015b60405180910390fd5b506009805460ff9283166101000261ffff199091169290931691909117919091179055565b600033610636818585610b16565b600061082181610b75565b81156108cf576001600160a01b038316301480159061087757506001600160a01b03831660009081527f5eff886ea0ce6ca488a3d6e336d6c0f75f46d19b42c06ce5ee98e42c96d256c7602052604090205460ff165b6108cf5760405162461bcd60e51b8152602060048201526024808201527f43616e6e6f7420656e666f726365206665657320666f722074686973206164646044820152637265737360e01b60648201526084016107da565b506001600160a01b03919091166000908152601260205260409020805460ff1916911515919091179055565b600061090681610b75565b506001600160a01b03919091166000908152601360205260409020805460ff1916911515919091179055565b834211156109565760405163313c898160e11b8152600481018590526024016107da565b60007f6e71edae12b1b97f4d1f60370fef10105fa2faae0126114a169c64845d6126c98888886109a38c6001600160a01b0316600090815260076020526040902080546001810190915590565b6040805160208101969096526001600160a01b0394851690860152929091166060840152608083015260a082015260c0810186905260e00160405160208183030381529060405280519060200120905060006109fe82610e6f565b90506000610a0e82878787610e9c565b9050896001600160a01b0316816001600160a01b031614610a55576040516325c0072360e11b81526001600160a01b0380831660048301528b1660248201526044016107da565b610a608a8a8a610a91565b50505050505050505050565b600082815260086020526040902060010154610a8781610b75565b6106898383610d58565b6106d18383836001610eca565b6001600160a01b0383811660009081526001602090815260408083209386168352929052205460001981146106895781811015610b0757604051637dc7a0d960e11b81526001600160a01b038416600482015260248101829052604481018390526064016107da565b61068984848484036000610eca565b6001600160a01b038316610b4057604051634b637e8f60e11b8152600060048201526024016107da565b6001600160a01b038216610b6a5760405163ec442f0560e01b8152600060048201526024016107da565b6106d1838383610f9f565b6106e08133611073565b60008281526008602090815260408083206001600160a01b038516845290915281205460ff16610c255760008381526008602090815260408083206001600160a01b03861684529091529020805460ff19166001179055610bdd3390565b6001600160a01b0316826001600160a01b0316847f2f8788117e7eff1d82e926ec794901d17c78024a50270940304540a733656f0d60405160405180910390a4506001610590565b506000610590565b6000306001600160a01b037f000000000000000000000000000000000000000000000000000000000000000016148015610c8657507f000000000000000000000000000000000000000000000000000000000000000046145b15610cb057507f000000000000000000000000000000000000000000000000000000000000000090565b610699604080517f8b73c3c69bb8fe3d512ecc4cf759cc79239f7b179b0ffacaa9a75d522b39400f60208201527f0000000000000000000000000000000000000000000000000000000000000000918101919091527f000000000000000000000000000000000000000000000000000000000000000060608201524660808201523060a082015260009060c00160405160208183030381529060405280519060200120905090565b60008281526008602090815260408083206001600160a01b038516845290915281205460ff1615610c255760008381526008602090815260408083206001600160a01b0386168085529252808320805460ff1916905551339286917ff6391f5c32d9c69d2a47ea670b442974b53935d1edc7fd64eb21e047a839171b9190a4506001610590565b6001600160a01b038216610e0957604051634b637e8f60e11b8152600060048201526024016107da565b6106f882600083610f9f565b60606106997f000000000000000000000000000000000000000000000000000000000000000060056110c8565b60606106997f000000000000000000000000000000000000000000000000000000000000000060066110c8565b6000610590610e7c610c2d565b8360405161190160f01b8152600281019290925260228201526042902090565b600080600080610eae88888888611173565b925092509250610ebe8282611242565b50909695505050505050565b6001600160a01b038416610ef45760405163e602df0560e01b8152600060048201526024016107da565b6001600160a01b038316610f1e57604051634a1406b160e11b8152600060048201526024016107da565b6001600160a01b038085166000908152600160209081526040808320938716835292905220829055801561068957826001600160a01b0316846001600160a01b03167f8c5be1e5ebec7d5bd14f71427d1e84f3dd0314c0f7b2291e5b200ac8c7c3b92584604051610f9191815260200190565b60405180910390a350505050565b6001600160a01b03831660009081526013602052604081205460ff1680610fde57506001600160a01b03831660009081526013602052604090205460ff165b6001600160a01b038516600090815260126020526040902054909150829060ff1615801561102557506001600160a01b03841660009081526012602052604090205460ff16155b801561102e5750815b156110615760006110408686866112fb565b905061104c81836118c4565b9150801561105f5761105f863083610f9f565b505b61106c8585836113d3565b5050505050565b60008281526008602090815260408083206001600160a01b038516845290915290205460ff166106f85760405163e2517d3f60e01b81526001600160a01b0382166004820152602481018390526044016107da565b606060ff83146110e2576110db836114fd565b9050610590565b8180546110ee90611874565b80601f016020809104026020016040519081016040528092919081815260200182805461111a90611874565b80156111675780601f1061113c57610100808354040283529160200191611167565b820191906000526020600020905b81548152906001019060200180831161114a57829003601f168201915b50505050509050610590565b600080807f7fffffffffffffffffffffffffffffff5d576e7357a4501ddfe92f46681b20a08411156111ae5750600091506003905082611238565b604080516000808252602082018084528a905260ff891692820192909252606081018790526080810186905260019060a0016020604051602081039080840390855afa158015611202573d6000803e3d6000fd5b5050604051601f1901519150506001600160a01b03811661122e57506000925060019150829050611238565b9250600091508190505b9450945094915050565b6000826003811115611256576112566118d7565b0361125f575050565b6001826003811115611273576112736118d7565b036112915760405163f645eedf60e01b815260040160405180910390fd5b60028260038111156112a5576112a56118d7565b036112c65760405163fce698f760e01b8152600481018290526024016107da565b60038260038111156112da576112da6118d7565b036106f8576040516335e2f38360e21b8152600481018290526024016107da565b6001600160a01b038316600090815260126020526040812054819060ff168061133c57506001600160a01b03841660009081526012602052604090205460ff165b15611349575060006113cb565b6001600160a01b03851660009081526013602052604090205460ff161561138e5760095460649061137d9060ff16856118ed565b6113879190611904565b90506113cb565b6001600160a01b03841660009081526013602052604090205460ff16156113c75760095460649061137d90610100900460ff16856118ed565b5060005b949350505050565b6001600160a01b0383166113fe5780600260008282546113f39190611926565b909155506114709050565b6001600160a01b038316600090815260208190526040902054818110156114515760405163391434e360e21b81526001600160a01b038516600482015260248101829052604481018390526064016107da565b6001600160a01b03841660009081526020819052604090209082900390555b6001600160a01b03821661148c576002805482900390556114ab565b6001600160a01b03821660009081526020819052604090208054820190555b816001600160a01b0316836001600160a01b03167fddf252ad1be2c89b69c2b068fc378daa952ba7f163c4a11628f55a4df523b3ef836040516114f091815260200190565b60405180910390a3505050565b6060600061150a8361153c565b604080516020808252818301909252919250600091906020820181803683375050509182525060208101929092525090565b600060ff8216601f81111561059057604051632cd44ac360e21b815260040160405180910390fd5b60006020828403121561157657600080fd5b81356001600160e01b03198116811461158e57600080fd5b9392505050565b6000815180845260005b818110156115bb5760208185018101518683018201520161159f565b506000602082860101526020601f19601f83011685010191505092915050565b60208152600061158e6020830184611595565b80356001600160a01b038116811461160557600080fd5b919050565b6000806040838503121561161d57600080fd5b611626836115ee565b946020939093013593505050565b60008060006060848603121561164957600080fd5b611652846115ee565b9250611660602085016115ee565b9150604084013590509250925092565b60006020828403121561168257600080fd5b5035919050565b6000806040838503121561169c57600080fd5b823591506116ac602084016115ee565b90509250929050565b6000602082840312156116c757600080fd5b61158e826115ee565b60ff60f81b881681526000602060e060208401526116f160e084018a611595565b8381036040850152611703818a611595565b606085018990526001600160a01b038816608086015260a0850187905284810360c08601528551808252602080880193509091019060005b818110156117575783518352928401929184019160010161173b565b50909c9b505050505050505050505050565b803560ff8116811461160557600080fd5b6000806040838503121561178d57600080fd5b61179683611769565b91506116ac60208401611769565b600080604083850312156117b757600080fd5b6117c0836115ee565b9150602083013580151581146117d557600080fd5b809150509250929050565b600080600080600080600060e0888a0312156117fb57600080fd5b611804886115ee565b9650611812602089016115ee565b9550604088013594506060880135935061182e60808901611769565b925060a0880135915060c0880135905092959891949750929550565b6000806040838503121561185d57600080fd5b611866836115ee565b91506116ac602084016115ee565b600181811c9082168061188857607f821691505b6020821081036118a857634e487b7160e01b600052602260045260246000fd5b50919050565b634e487b7160e01b600052601160045260246000fd5b81810381811115610590576105906118ae565b634e487b7160e01b600052602160045260246000fd5b8082028115828204841417610590576105906118ae565b60008261192157634e487b7160e01b600052601260045260246000fd5b500490565b80820180821115610590576105906118ae56fea164736f6c6343000818000a",
  "linkReferences": {},
  "deployedLinkReferences": {}
}